{
    "contractName": "Splitter",
    "abi": [
        {
            "constant": true,
            "inputs": [
                {
                    "name": "",
                    "type": "address"
                }
            ],
            "name": "balances",
            "outputs": [
                {
                    "name": "",
                    "type": "uint256"
                }
            ],
            "payable": false,
            "stateMutability": "view",
            "type": "function"
        },
        {
            "constant": false,
            "inputs": [
                {
                    "name": "amount",
                    "type": "uint256"
                }
            ],
            "name": "withdraw",
            "outputs": [],
            "payable": false,
            "stateMutability": "nonpayable",
            "type": "function"
        },
        {
            "constant": false,
            "inputs": [],
            "name": "splitEther",
            "outputs": [],
            "payable": true,
            "stateMutability": "payable",
            "type": "function"
        },
        {
            "constant": true,
            "inputs": [
                {
                    "name": "addr",
                    "type": "address"
                }
            ],
            "name": "getUser",
            "outputs": [
                {
                    "name": "balance",
                    "type": "uint256"
                }
            ],
            "payable": false,
            "stateMutability": "view",
            "type": "function"
        },
        {
            "constant": true,
            "inputs": [],
            "name": "getContractBalance",
            "outputs": [
                {
                    "name": "",
                    "type": "uint256"
                }
            ],
            "payable": false,
            "stateMutability": "view",
            "type": "function"
        },
        {
            "constant": true,
            "inputs": [],
            "name": "carol",
            "outputs": [
                {
                    "name": "",
                    "type": "address"
                }
            ],
            "payable": false,
            "stateMutability": "view",
            "type": "function"
        },
        {
            "constant": true,
            "inputs": [],
            "name": "bob",
            "outputs": [
                {
                    "name": "",
                    "type": "address"
                }
            ],
            "payable": false,
            "stateMutability": "view",
            "type": "function"
        },
        {
            "constant": true,
            "inputs": [],
            "name": "alice",
            "outputs": [
                {
                    "name": "",
                    "type": "address"
                }
            ],
            "payable": false,
            "stateMutability": "view",
            "type": "function"
        },
        {
            "inputs": [
                {
                    "name": "a",
                    "type": "address"
                },
                {
                    "name": "b",
                    "type": "address"
                },
                {
                    "name": "c",
                    "type": "address"
                }
            ],
            "payable": false,
            "stateMutability": "nonpayable",
            "type": "constructor"
        }
    ],
    "bytecode": "608060405234801561001057600080fd5b506040516060806106e08339810180604052606081101561003057600080fd5b508051602080830151604093840151600080546001600160a01b039586166001600160a01b031991821617808355600180549588169583169590951785556002805494881694909216939093178155918516815260039093528483208390559054831682528382208290555490911681529081205561062c806100b46000396000f3fe60806040526004361061007b5760003560e01c80636f9fb98a1161004e5780636f9fb98a1461012c5780638b930f1514610141578063c09cec7714610172578063fb47e3a2146101875761007b565b806327e235e3146100805780632e1a7d4d146100c5578063502b31d2146100f15780636f77926b146100f9575b600080fd5b34801561008c57600080fd5b506100b3600480360360208110156100a357600080fd5b50356001600160a01b031661019c565b60408051918252519081900360200190f35b3480156100d157600080fd5b506100ef600480360360208110156100e857600080fd5b50356101ae565b005b6100ef610241565b34801561010557600080fd5b506100b36004803603602081101561011c57600080fd5b50356001600160a01b0316610322565b34801561013857600080fd5b506100b361033d565b34801561014d57600080fd5b50610156610342565b604080516001600160a01b039092168252519081900360200190f35b34801561017e57600080fd5b50610156610351565b34801561019357600080fd5b50610156610360565b60036020526000908152604090205481565b600081116101bb57600080fd5b336000908152600360205260409020548111156101d757600080fd5b30318111156101e557600080fd5b336000908152600360205260409020546101ff908261036f565b33600081815260036020526040808220939093559151909183156108fc02918491818181858888f1935050505015801561023d573d6000803e3d6000fd5b5050565b6000546001600160a01b0316331461025857600080fd5b60006102653460026103b8565b905060006102743460026103fa565b6001546001600160a01b031660009081526003602052604090205490915061029c908361043c565b6001546001600160a01b0390811660009081526003602052604080822093909355600254909116815220546102d1908361043c565b6002546001600160a01b0390811660009081526003602052604080822093909355805490911681522054610305908261043c565b600080546001600160a01b03168152600360205260409020555050565b6001600160a01b031660009081526003602052604090205490565b303190565b6002546001600160a01b031681565b6001546001600160a01b031681565b6000546001600160a01b031681565b60006103b183836040518060400160405280601e81526020017f536166654d6174683a207375627472616374696f6e206f766572666c6f770000815250610499565b9392505050565b60006103b183836040518060400160405280601a81526020017f536166654d6174683a206469766973696f6e206279207a65726f000000000000815250610533565b60006103b183836040518060400160405280601881526020017f536166654d6174683a206d6f64756c6f206279207a65726f000000000000000081525061059b565b6000828201838110156103b15760408051600160e51b62461bcd02815260206004820152601b60248201527f536166654d6174683a206164646974696f6e206f766572666c6f770000000000604482015290519081900360640190fd5b6000818484111561052b57604051600160e51b62461bcd0281526004018080602001828103825283818151815260200191508051906020019080838360005b838110156104f05781810151838201526020016104d8565b50505050905090810190601f16801561051d5780820380516001836020036101000a031916815260200191505b509250505060405180910390fd5b505050900390565b6000818361058557604051600160e51b62461bcd0281526020600482018181528351602484015283519092839260449091019190850190808383600083156104f05781810151838201526020016104d8565b50600083858161059157fe5b0495945050505050565b600081836105ed57604051600160e51b62461bcd0281526020600482018181528351602484015283519092839260449091019190850190808383600083156104f05781810151838201526020016104d8565b508284816105f757fe5b0694935050505056fea165627a7a72305820064580479620c569c7bd8afd07718deb8c937f0db228fcd2052359db513ae4930029",
    "sourcePath": "/Users/icarus/eth/splitter/Projects/Splitter/contracts/Splitter.sol",
    "compiler": {
        "name": "solc",
        "version": "0.5.8+commit.23d335f2"
    },
    "functionHashes": {
        "alice()": "fb47e3a2",
        "balances(address)": "27e235e3",
        "bob()": "c09cec77",
        "carol()": "8b930f15",
        "getContractBalance()": "6f9fb98a",
        "getUser(address)": "6f77926b",
        "splitEther()": "502b31d2",
        "withdraw(uint256)": "2e1a7d4d"
    },
    "gasEstimates": {
        "creation": {
            "codeDepositCost": "316000",
            "executionCost": "76824",
            "totalCost": "392824"
        },
        "external": {
            "alice()": "503",
            "balances(address)": "525",
            "bob()": "481",
            "carol()": "459",
            "getContractBalance()": "597",
            "getUser(address)": "609",
            "splitEther()": "infinite",
            "withdraw(uint256)": "infinite"
        }
    }
}